{
  "contractName": "Marketplace",
  "abi": [
    {
      "constant": true,
      "inputs": [
        {
          "name": "",
          "type": "address"
        }
      ],
      "name": "storeOwners",
      "outputs": [
        {
          "name": "",
          "type": "bool"
        }
      ],
      "payable": false,
      "stateMutability": "view",
      "type": "function"
    },
    {
      "constant": false,
      "inputs": [],
      "name": "renounceOwnership",
      "outputs": [],
      "payable": false,
      "stateMutability": "nonpayable",
      "type": "function"
    },
    {
      "constant": true,
      "inputs": [
        {
          "name": "",
          "type": "address"
        }
      ],
      "name": "administrators",
      "outputs": [
        {
          "name": "",
          "type": "bool"
        }
      ],
      "payable": false,
      "stateMutability": "view",
      "type": "function"
    },
    {
      "constant": true,
      "inputs": [],
      "name": "owner",
      "outputs": [
        {
          "name": "",
          "type": "address"
        }
      ],
      "payable": false,
      "stateMutability": "view",
      "type": "function"
    },
    {
      "constant": false,
      "inputs": [
        {
          "name": "_newOwner",
          "type": "address"
        }
      ],
      "name": "transferOwnership",
      "outputs": [],
      "payable": false,
      "stateMutability": "nonpayable",
      "type": "function"
    },
    {
      "constant": true,
      "inputs": [
        {
          "name": "",
          "type": "address"
        }
      ],
      "name": "indexOfMerchant",
      "outputs": [
        {
          "name": "",
          "type": "uint256"
        }
      ],
      "payable": false,
      "stateMutability": "view",
      "type": "function"
    },
    {
      "inputs": [],
      "payable": false,
      "stateMutability": "nonpayable",
      "type": "constructor"
    },
    {
      "anonymous": false,
      "inputs": [
        {
          "indexed": false,
          "name": "_address",
          "type": "address"
        }
      ],
      "name": "AdminCreated",
      "type": "event"
    },
    {
      "anonymous": false,
      "inputs": [
        {
          "indexed": false,
          "name": "_address",
          "type": "address"
        }
      ],
      "name": "StoreOwnerCreated",
      "type": "event"
    },
    {
      "anonymous": false,
      "inputs": [
        {
          "indexed": false,
          "name": "_address",
          "type": "address"
        }
      ],
      "name": "StoreOwnerDeleted",
      "type": "event"
    },
    {
      "anonymous": false,
      "inputs": [
        {
          "indexed": true,
          "name": "previousOwner",
          "type": "address"
        }
      ],
      "name": "OwnershipRenounced",
      "type": "event"
    },
    {
      "anonymous": false,
      "inputs": [
        {
          "indexed": true,
          "name": "previousOwner",
          "type": "address"
        },
        {
          "indexed": true,
          "name": "newOwner",
          "type": "address"
        }
      ],
      "name": "OwnershipTransferred",
      "type": "event"
    },
    {
      "constant": true,
      "inputs": [],
      "name": "getStoreOwnerCount",
      "outputs": [
        {
          "name": "",
          "type": "uint256"
        }
      ],
      "payable": false,
      "stateMutability": "view",
      "type": "function"
    },
    {
      "constant": true,
      "inputs": [],
      "name": "getAdministratorCount",
      "outputs": [
        {
          "name": "",
          "type": "uint256"
        }
      ],
      "payable": false,
      "stateMutability": "view",
      "type": "function"
    },
    {
      "constant": false,
      "inputs": [
        {
          "name": "newAdminAddress",
          "type": "address"
        }
      ],
      "name": "createAdmin",
      "outputs": [],
      "payable": false,
      "stateMutability": "nonpayable",
      "type": "function"
    },
    {
      "constant": true,
      "inputs": [
        {
          "name": "_address",
          "type": "address"
        }
      ],
      "name": "isAdministrator",
      "outputs": [
        {
          "name": "",
          "type": "bool"
        }
      ],
      "payable": false,
      "stateMutability": "view",
      "type": "function"
    },
    {
      "constant": false,
      "inputs": [
        {
          "name": "_address",
          "type": "address"
        }
      ],
      "name": "createStoreOwner",
      "outputs": [],
      "payable": false,
      "stateMutability": "nonpayable",
      "type": "function"
    },
    {
      "constant": false,
      "inputs": [
        {
          "name": "_address",
          "type": "address"
        }
      ],
      "name": "removeMerchant",
      "outputs": [],
      "payable": false,
      "stateMutability": "nonpayable",
      "type": "function"
    },
    {
      "constant": true,
      "inputs": [
        {
          "name": "_address",
          "type": "address"
        }
      ],
      "name": "isStoreOwner",
      "outputs": [
        {
          "name": "",
          "type": "bool"
        }
      ],
      "payable": false,
      "stateMutability": "view",
      "type": "function"
    },
    {
      "constant": true,
      "inputs": [],
      "name": "getNumberOfMerchants",
      "outputs": [
        {
          "name": "",
          "type": "uint256"
        }
      ],
      "payable": false,
      "stateMutability": "view",
      "type": "function"
    },
    {
      "constant": true,
      "inputs": [
        {
          "name": "index",
          "type": "uint256"
        }
      ],
      "name": "getMerchantByArrayId",
      "outputs": [
        {
          "name": "",
          "type": "address"
        }
      ],
      "payable": false,
      "stateMutability": "view",
      "type": "function"
    },
    {
      "constant": false,
      "inputs": [],
      "name": "toggleContractActive",
      "outputs": [],
      "payable": false,
      "stateMutability": "nonpayable",
      "type": "function"
    },
    {
      "constant": true,
      "inputs": [],
      "name": "isStopped",
      "outputs": [
        {
          "name": "",
          "type": "bool"
        }
      ],
      "payable": false,
      "stateMutability": "view",
      "type": "function"
    }
  ],
  "bytecode": "0x608060405260008060146101000a81548160ff02191690831515021790555034801561002a57600080fd5b50336000806101000a81548173ffffffffffffffffffffffffffffffffffffffff021916908373ffffffffffffffffffffffffffffffffffffffff160217905550336000806101000a81548173ffffffffffffffffffffffffffffffffffffffff021916908373ffffffffffffffffffffffffffffffffffffffff1602179055506001600560003373ffffffffffffffffffffffffffffffffffffffff1673ffffffffffffffffffffffffffffffffffffffff16815260200190815260200160002060006101000a81548160ff0219169083151502179055506000600181905550600160028190555061122a806101226000396000f3006080604052600436106100f1576000357c0100000000000000000000000000000000000000000000000000000000900463ffffffff16806304020595146100f6578063057cc2a1146101395780630a2eb30114610194578063133adab6146101ef5780631385d24c146102325780633f683b6a146102495780634baa0f5e14610278578063538b374f146102bb5780635effd33c146102e6578063715018a61461034157806376be1585146103585780638da5cb5b146103b3578063940a6cf51461040a578063a312aa3314610435578063a7b58b7014610460578063f2fde38b146104cd578063f9aae45014610510575b600080fd5b34801561010257600080fd5b50610137600480360381019080803573ffffffffffffffffffffffffffffffffffffffff169060200190929190505050610567565b005b34801561014557600080fd5b5061017a600480360381019080803573ffffffffffffffffffffffffffffffffffffffff169060200190929190505050610716565b604051808215151515815260200191505060405180910390f35b3480156101a057600080fd5b506101d5600480360381019080803573ffffffffffffffffffffffffffffffffffffffff169060200190929190505050610736565b604051808215151515815260200191505060405180910390f35b3480156101fb57600080fd5b50610230600480360381019080803573ffffffffffffffffffffffffffffffffffffffff16906020019092919050505061078c565b005b34801561023e57600080fd5b50610247610adb565b005b34801561025557600080fd5b5061025e610b62565b604051808215151515815260200191505060405180910390f35b34801561028457600080fd5b506102b9600480360381019080803573ffffffffffffffffffffffffffffffffffffffff169060200190929190505050610b78565b005b3480156102c757600080fd5b506102d0610e33565b6040518082815260200191505060405180910390f35b3480156102f257600080fd5b50610327600480360381019080803573ffffffffffffffffffffffffffffffffffffffff169060200190929190505050610e3d565b604051808215151515815260200191505060405180910390f35b34801561034d57600080fd5b50610356610e93565b005b34801561036457600080fd5b50610399600480360381019080803573ffffffffffffffffffffffffffffffffffffffff169060200190929190505050610f95565b604051808215151515815260200191505060405180910390f35b3480156103bf57600080fd5b506103c8610fb5565b604051808273ffffffffffffffffffffffffffffffffffffffff1673ffffffffffffffffffffffffffffffffffffffff16815260200191505060405180910390f35b34801561041657600080fd5b5061041f610fda565b6040518082815260200191505060405180910390f35b34801561044157600080fd5b5061044a610fe4565b6040518082815260200191505060405180910390f35b34801561046c57600080fd5b5061048b60048036038101908080359060200190929190505050610ff1565b604051808273ffffffffffffffffffffffffffffffffffffffff1673ffffffffffffffffffffffffffffffffffffffff16815260200191505060405180910390f35b3480156104d957600080fd5b5061050e600480360381019080803573ffffffffffffffffffffffffffffffffffffffff169060200190929190505050611034565b005b34801561051c57600080fd5b50610551600480360381019080803573ffffffffffffffffffffffffffffffffffffffff16906020019092919050505061109b565b6040518082815260200191505060405180910390f35b600060149054906101000a900460ff1615156107135760011515600560003373ffffffffffffffffffffffffffffffffffffffff1673ffffffffffffffffffffffffffffffffffffffff16815260200190815260200160002060009054906101000a900460ff161515141515610645576040517f08c379a000000000000000000000000000000000000000000000000000000000815260040180806020018281038252601d8152602001807f41646d696e6973747261746f722073746174757320726571756972656400000081525060200191505060405180910390fd5b6001600560008373ffffffffffffffffffffffffffffffffffffffff1673ffffffffffffffffffffffffffffffffffffffff16815260200190815260200160002060006101000a81548160ff0219169083151502179055506002546002600082825401925050819055507f068138ab5baa0a8a7aadb0e73d78b0b40417344c7bba0f4387479260cc462d6681604051808273ffffffffffffffffffffffffffffffffffffffff1673ffffffffffffffffffffffffffffffffffffffff16815260200191505060405180910390a15b50565b60066020528060005260406000206000915054906101000a900460ff1681565b6000600560008373ffffffffffffffffffffffffffffffffffffffff1673ffffffffffffffffffffffffffffffffffffffff16815260200190815260200160002060009054906101000a900460ff169050919050565b60008060149054906101000a900460ff161515610ad75760011515600560003373ffffffffffffffffffffffffffffffffffffffff1673ffffffffffffffffffffffffffffffffffffffff16815260200190815260200160002060009054906101000a900460ff16151514151561086b576040517f08c379a000000000000000000000000000000000000000000000000000000000815260040180806020018281038252601d8152602001807f41646d696e6973747261746f722073746174757320726571756972656400000081525060200191505060405180910390fd5b60011515600660008473ffffffffffffffffffffffffffffffffffffffff1673ffffffffffffffffffffffffffffffffffffffff16815260200190815260200160002060009054906101000a900460ff1615151415610ad6576000600660008473ffffffffffffffffffffffffffffffffffffffff1673ffffffffffffffffffffffffffffffffffffffff16815260200190815260200160002060006101000a81548160ff021916908315150217905550600460008373ffffffffffffffffffffffffffffffffffffffff1673ffffffffffffffffffffffffffffffffffffffff16815260200190815260200160002054905060016003805490501115610a4a57600360016003805490500381548110151561098357fe5b9060005260206000200160009054906101000a900473ffffffffffffffffffffffffffffffffffffffff166003828154811015156109bd57fe5b9060005260206000200160006101000a81548173ffffffffffffffffffffffffffffffffffffffff021916908373ffffffffffffffffffffffffffffffffffffffff1602179055506003600160038054905003815481101515610a1c57fe5b9060005260206000200160006101000a81549073ffffffffffffffffffffffffffffffffffffffff02191690555b6003805480919060019003610a5f91906111ad565b506001546001600082825403925050819055507f19a3e9fda2e115a7a933fece556b7329b23b94947c0dd2fde151f204f00a2dd282604051808273ffffffffffffffffffffffffffffffffffffffff1673ffffffffffffffffffffffffffffffffffffffff16815260200191505060405180910390a15b5b5050565b6000809054906101000a900473ffffffffffffffffffffffffffffffffffffffff1673ffffffffffffffffffffffffffffffffffffffff163373ffffffffffffffffffffffffffffffffffffffff16141515610b3657600080fd5b600060149054906101000a900460ff1615600060146101000a81548160ff021916908315150217905550565b60008060149054906101000a900460ff16905090565b600060149054906101000a900460ff161515610e305760011515600560003373ffffffffffffffffffffffffffffffffffffffff1673ffffffffffffffffffffffffffffffffffffffff16815260200190815260200160002060009054906101000a900460ff161515141515610c56576040517f08c379a000000000000000000000000000000000000000000000000000000000815260040180806020018281038252601d8152602001807f41646d696e6973747261746f722073746174757320726571756972656400000081525060200191505060405180910390fd5b60001515600660008373ffffffffffffffffffffffffffffffffffffffff1673ffffffffffffffffffffffffffffffffffffffff16815260200190815260200160002060009054906101000a900460ff1615151415610e2f576001600660008373ffffffffffffffffffffffffffffffffffffffff1673ffffffffffffffffffffffffffffffffffffffff16815260200190815260200160002060006101000a81548160ff02191690831515021790555060015460016000828254019250508190555060038190806001815401808255809150509060018203906000526020600020016000909192909190916101000a81548173ffffffffffffffffffffffffffffffffffffffff021916908373ffffffffffffffffffffffffffffffffffffffff16021790555050600160038054905003600460008373ffffffffffffffffffffffffffffffffffffffff1673ffffffffffffffffffffffffffffffffffffffff168152602001908152602001600020819055507f19a3e9fda2e115a7a933fece556b7329b23b94947c0dd2fde151f204f00a2dd281604051808273ffffffffffffffffffffffffffffffffffffffff1673ffffffffffffffffffffffffffffffffffffffff16815260200191505060405180910390a15b5b50565b6000600154905090565b6000600660008373ffffffffffffffffffffffffffffffffffffffff1673ffffffffffffffffffffffffffffffffffffffff16815260200190815260200160002060009054906101000a900460ff169050919050565b6000809054906101000a900473ffffffffffffffffffffffffffffffffffffffff1673ffffffffffffffffffffffffffffffffffffffff163373ffffffffffffffffffffffffffffffffffffffff16141515610eee57600080fd5b6000809054906101000a900473ffffffffffffffffffffffffffffffffffffffff1673ffffffffffffffffffffffffffffffffffffffff167ff8df31144d9c2f0f6b59d69b8b98abd5459d07f2742c4df920b25aae33c6482060405160405180910390a260008060006101000a81548173ffffffffffffffffffffffffffffffffffffffff021916908373ffffffffffffffffffffffffffffffffffffffff160217905550565b60056020528060005260406000206000915054906101000a900460ff1681565b6000809054906101000a900473ffffffffffffffffffffffffffffffffffffffff1681565b6000600254905090565b6000600380549050905090565b600060038281548110151561100257fe5b9060005260206000200160009054906101000a900473ffffffffffffffffffffffffffffffffffffffff169050919050565b6000809054906101000a900473ffffffffffffffffffffffffffffffffffffffff1673ffffffffffffffffffffffffffffffffffffffff163373ffffffffffffffffffffffffffffffffffffffff1614151561108f57600080fd5b611098816110b3565b50565b60046020528060005260406000206000915090505481565b600073ffffffffffffffffffffffffffffffffffffffff168173ffffffffffffffffffffffffffffffffffffffff16141515156110ef57600080fd5b8073ffffffffffffffffffffffffffffffffffffffff166000809054906101000a900473ffffffffffffffffffffffffffffffffffffffff1673ffffffffffffffffffffffffffffffffffffffff167f8be0079c531659141344cd1fd0a4f28419497f9722a3daafe3b4186f6b6457e060405160405180910390a3806000806101000a81548173ffffffffffffffffffffffffffffffffffffffff021916908373ffffffffffffffffffffffffffffffffffffffff16021790555050565b8154818355818111156111d4578183600052602060002091820191016111d391906111d9565b5b505050565b6111fb91905b808211156111f75760008160009055506001016111df565b5090565b905600a165627a7a72305820773e008d45245d5f17e131dc4741a84ed8b6e6c0eaeb28bb151c10ff7b8d41a00029",
  "source": "pragma solidity ^0.4.23;\n\nimport \"../library_contracts/Ownable.sol\";\n\n/*\nOnline marketplace contract.\nThis contract manages and keeps track of administrators, store owners, statuses and provides functions to support the stores contract.\n*/\n\n/** @title Marketplace. */\ncontract Marketplace is Ownable {\n\n    /* Used for emergency stop */\n    bool private stopped = false;\n\n    /* Variable storeOwnerCount tracks the number of store owners */\n    uint storeOwnerCount;\n\n    /* Variable administratorCount tracks the number of administrators */\n    uint administratorCount;\n\n    /* Array that holds all merchants */\n    address[] merchants;\n\n    /* Mapping between address and position in merchants array */\n    mapping (address => uint) public indexOfMerchant;\n\n    /* Mapping between address and administrator status */\n    mapping (address => bool) public administrators;\n\n    /* Mapping between address and merchant status */\n    mapping (address => bool) public storeOwners;\n\n\n    // Emitted contract events\n    event AdminCreated(address _address);\n    event StoreOwnerCreated(address _address);\n    event StoreOwnerDeleted(address _address);\n\n    /** @dev Modifier function to check if sender is owner of contract  */\n    modifier isOwner() {\n        require(msg.sender == owner, \"Only owner allowed\");\n        _;\n    }\n\n    /** @dev Emergency stop modifier which restricts certain functions from executing if toggled on */\n    modifier stopInEmergency {if (!stopped) _;}\n\n    /** @dev Checks if the msg.sender is admin */\n    modifier verifyAdmin() {require (administrators[msg.sender] == true, \"Administrator status required\"); _;}\n\n    /** @dev Deployer address is made owner of contract and also given administrator status */\n    constructor() public{\n        owner = msg.sender;\n        administrators[msg.sender] = true;\n        storeOwnerCount = 0;\n        administratorCount = 1;\n    }\n\n    /** @dev Returns the number of current store owners.\n      * @return The number of store owners.\n      */\n    function getStoreOwnerCount() public view returns (uint) {\n        return storeOwnerCount;\n    }\n\n    /** @dev Returns the number of administrators\n      * @return The number of administrators.\n      */\n    function getAdministratorCount() public view returns (uint) {\n        return administratorCount;\n    }\n\n    /** @dev Creates a new Marketplace admin.\n      * @param newAdminAddress The address of which to set as admin.\n      */\n    function createAdmin(address newAdminAddress) public stopInEmergency() verifyAdmin() {\n        administrators[newAdminAddress] = true;\n        administratorCount += administratorCount;\n        emit AdminCreated(newAdminAddress);\n    }\n\n    /** @dev Checks if given address is administrator.\n      * @param _address Address to check for administrator status.\n      * @return True if address is admin, otherwise false.\n      */\n    function isAdministrator(address _address) public view returns (bool) {\n        return administrators[_address];\n    }\n\n    /** @dev Grants given address merchant status and allows them to create stores.\n      * @param _address Address of which to grant merchant status.\n      */\n    function createStoreOwner(address _address) public stopInEmergency() verifyAdmin() {\n        if(storeOwners[_address] == false) {\n            storeOwners[_address] = true;\n            storeOwnerCount += storeOwnerCount;\n            merchants.push(_address);\n            indexOfMerchant[_address] = merchants.length - 1;\n            emit StoreOwnerCreated(_address);\n        }\n    }\n\n    /** @dev Removes merchant status from address.\n      * @param _address Address of which to remove merchant status.\n      */\n    function removeMerchant(address _address) public stopInEmergency() verifyAdmin() {\n        if(storeOwners[_address] == true) {\n            storeOwners[_address] = false;\n\n            uint index = indexOfMerchant[_address];\n            // if (!index) return;\n\n            if (merchants.length > 1) {\n                merchants[index] = merchants[merchants.length-1];\n                delete(merchants[merchants.length-1]); // recover gas\n            }\n            merchants.length--;\n\n            storeOwnerCount -= storeOwnerCount;\n            emit StoreOwnerCreated(_address);\n        }\n    }\n\n    /** @dev Check if given address has merchant status.\n      * @param _address Address to check for merchant status.\n      * @return True if merchant, otherwise false\n      */\n    function isStoreOwner(address _address) public view returns (bool) {\n        return storeOwners[_address];\n    }\n\n    /** @dev Returns number of merchants.\n      * @return Number of merchants in Marketplace\n      */\n    function getNumberOfMerchants() public view returns (uint) {\n        return merchants.length;\n    }\n\n    /** @dev Returns address of merchant in given array position.\n      * @param index Index in merchants array of which to return merchant address.\n      * @return The merchant address corresponding to the index.\n      */\n    function getMerchantByArrayId(uint index) public view returns (address) {\n        return merchants[index];\n    }\n\n    /** @dev Emergency stop function only callable by owner of contract\n      */\n    function toggleContractActive() public onlyOwner {\n        stopped = !stopped;\n    }\n\n    function isStopped() public view returns (bool) {\n        return stopped;\n    }\n}",
  "sourcePath": "/Users/marcusresell/Code/ethereum/ethDapp/contracts/Marketplace.sol",
  "compiler": {
    "name": "solc",
    "version": "0.4.24+commit.e67f0147.Emscripten.clang"
  },
  "schemaVersion": "2.0.1",
  "updatedAt": "2018-08-28T02:47:33.649Z"
}