{
  "contractName": "MarketplaceStores",
  "abi": [
    {
      "constant": true,
      "inputs": [
        {
          "name": "",
          "type": "uint256"
        }
      ],
      "name": "indexOfStore",
      "outputs": [
        {
          "name": "",
          "type": "uint256"
        }
      ],
      "payable": false,
      "stateMutability": "view",
      "type": "function"
    },
    {
      "constant": false,
      "inputs": [],
      "name": "renounceOwnership",
      "outputs": [],
      "payable": false,
      "stateMutability": "nonpayable",
      "type": "function"
    },
    {
      "constant": true,
      "inputs": [
        {
          "name": "",
          "type": "uint256"
        }
      ],
      "name": "storesArr",
      "outputs": [
        {
          "name": "id",
          "type": "uint256"
        },
        {
          "name": "merchant",
          "type": "address"
        },
        {
          "name": "name",
          "type": "string"
        },
        {
          "name": "balance",
          "type": "uint256"
        }
      ],
      "payable": false,
      "stateMutability": "view",
      "type": "function"
    },
    {
      "constant": true,
      "inputs": [
        {
          "name": "",
          "type": "uint256"
        },
        {
          "name": "",
          "type": "uint256"
        }
      ],
      "name": "storeProductIds",
      "outputs": [
        {
          "name": "",
          "type": "uint256"
        }
      ],
      "payable": false,
      "stateMutability": "view",
      "type": "function"
    },
    {
      "constant": true,
      "inputs": [],
      "name": "owner",
      "outputs": [
        {
          "name": "",
          "type": "address"
        }
      ],
      "payable": false,
      "stateMutability": "view",
      "type": "function"
    },
    {
      "constant": true,
      "inputs": [
        {
          "name": "",
          "type": "uint256"
        }
      ],
      "name": "indexOfProduct",
      "outputs": [
        {
          "name": "",
          "type": "uint256"
        }
      ],
      "payable": false,
      "stateMutability": "view",
      "type": "function"
    },
    {
      "constant": true,
      "inputs": [],
      "name": "marketplace",
      "outputs": [
        {
          "name": "",
          "type": "address"
        }
      ],
      "payable": false,
      "stateMutability": "view",
      "type": "function"
    },
    {
      "constant": true,
      "inputs": [
        {
          "name": "",
          "type": "address"
        },
        {
          "name": "",
          "type": "uint256"
        }
      ],
      "name": "merchantStoreIds",
      "outputs": [
        {
          "name": "",
          "type": "uint256"
        }
      ],
      "payable": false,
      "stateMutability": "view",
      "type": "function"
    },
    {
      "constant": true,
      "inputs": [],
      "name": "marketplaceAddress",
      "outputs": [
        {
          "name": "",
          "type": "address"
        }
      ],
      "payable": false,
      "stateMutability": "view",
      "type": "function"
    },
    {
      "constant": false,
      "inputs": [
        {
          "name": "_newOwner",
          "type": "address"
        }
      ],
      "name": "transferOwnership",
      "outputs": [],
      "payable": false,
      "stateMutability": "nonpayable",
      "type": "function"
    },
    {
      "constant": true,
      "inputs": [
        {
          "name": "",
          "type": "uint256"
        }
      ],
      "name": "productsArr",
      "outputs": [
        {
          "name": "id",
          "type": "uint256"
        },
        {
          "name": "name",
          "type": "string"
        },
        {
          "name": "description",
          "type": "string"
        },
        {
          "name": "price",
          "type": "uint256"
        },
        {
          "name": "state",
          "type": "uint8"
        },
        {
          "name": "storeId",
          "type": "uint256"
        },
        {
          "name": "quantity",
          "type": "uint256"
        }
      ],
      "payable": false,
      "stateMutability": "view",
      "type": "function"
    },
    {
      "inputs": [
        {
          "name": "_marketplaceAddress",
          "type": "address"
        }
      ],
      "payable": false,
      "stateMutability": "nonpayable",
      "type": "constructor"
    },
    {
      "anonymous": false,
      "inputs": [
        {
          "indexed": false,
          "name": "id",
          "type": "uint256"
        }
      ],
      "name": "StoreCreated",
      "type": "event"
    },
    {
      "anonymous": false,
      "inputs": [
        {
          "indexed": false,
          "name": "id",
          "type": "uint256"
        }
      ],
      "name": "StoreDeleted",
      "type": "event"
    },
    {
      "anonymous": false,
      "inputs": [
        {
          "indexed": false,
          "name": "id",
          "type": "uint256"
        },
        {
          "indexed": false,
          "name": "name",
          "type": "string"
        },
        {
          "indexed": false,
          "name": "description",
          "type": "string"
        },
        {
          "indexed": false,
          "name": "price",
          "type": "uint256"
        },
        {
          "indexed": false,
          "name": "storeId",
          "type": "uint256"
        },
        {
          "indexed": false,
          "name": "quantity",
          "type": "uint256"
        }
      ],
      "name": "ProductCreated",
      "type": "event"
    },
    {
      "anonymous": false,
      "inputs": [
        {
          "indexed": false,
          "name": "id",
          "type": "uint256"
        },
        {
          "indexed": false,
          "name": "storeId",
          "type": "uint256"
        }
      ],
      "name": "ProductDeleted",
      "type": "event"
    },
    {
      "anonymous": false,
      "inputs": [
        {
          "indexed": false,
          "name": "id",
          "type": "uint256"
        },
        {
          "indexed": false,
          "name": "price",
          "type": "uint256"
        }
      ],
      "name": "ProductPriceUpdated",
      "type": "event"
    },
    {
      "anonymous": false,
      "inputs": [
        {
          "indexed": false,
          "name": "id",
          "type": "uint256"
        },
        {
          "indexed": false,
          "name": "quantity",
          "type": "uint256"
        }
      ],
      "name": "ProductQuantityUpdated",
      "type": "event"
    },
    {
      "anonymous": false,
      "inputs": [
        {
          "indexed": false,
          "name": "id",
          "type": "uint256"
        },
        {
          "indexed": false,
          "name": "price",
          "type": "uint256"
        },
        {
          "indexed": false,
          "name": "quantity",
          "type": "uint256"
        }
      ],
      "name": "ProductPriceAndQuantityUpdated",
      "type": "event"
    },
    {
      "anonymous": false,
      "inputs": [
        {
          "indexed": false,
          "name": "id",
          "type": "uint256"
        },
        {
          "indexed": false,
          "name": "storeId",
          "type": "uint256"
        },
        {
          "indexed": false,
          "name": "price",
          "type": "uint256"
        },
        {
          "indexed": false,
          "name": "quantity",
          "type": "uint256"
        },
        {
          "indexed": false,
          "name": "total",
          "type": "uint256"
        },
        {
          "indexed": false,
          "name": "buyer",
          "type": "address"
        }
      ],
      "name": "ProductSold",
      "type": "event"
    },
    {
      "anonymous": false,
      "inputs": [
        {
          "indexed": false,
          "name": "merchant",
          "type": "address"
        },
        {
          "indexed": false,
          "name": "amount",
          "type": "uint256"
        },
        {
          "indexed": false,
          "name": "storeId",
          "type": "uint256"
        }
      ],
      "name": "StoreBalanceWithdraw",
      "type": "event"
    },
    {
      "anonymous": false,
      "inputs": [
        {
          "indexed": true,
          "name": "previousOwner",
          "type": "address"
        }
      ],
      "name": "OwnershipRenounced",
      "type": "event"
    },
    {
      "anonymous": false,
      "inputs": [
        {
          "indexed": true,
          "name": "previousOwner",
          "type": "address"
        },
        {
          "indexed": true,
          "name": "newOwner",
          "type": "address"
        }
      ],
      "name": "OwnershipTransferred",
      "type": "event"
    },
    {
      "constant": false,
      "inputs": [
        {
          "name": "name",
          "type": "string"
        }
      ],
      "name": "createStore",
      "outputs": [
        {
          "name": "",
          "type": "uint256"
        }
      ],
      "payable": false,
      "stateMutability": "nonpayable",
      "type": "function"
    },
    {
      "constant": true,
      "inputs": [],
      "name": "getStoreCount",
      "outputs": [
        {
          "name": "",
          "type": "uint256"
        }
      ],
      "payable": false,
      "stateMutability": "view",
      "type": "function"
    },
    {
      "constant": true,
      "inputs": [
        {
          "name": "_id",
          "type": "uint256"
        }
      ],
      "name": "getStoreById",
      "outputs": [
        {
          "name": "id",
          "type": "uint256"
        },
        {
          "name": "merchant",
          "type": "address"
        },
        {
          "name": "name",
          "type": "string"
        },
        {
          "name": "balance",
          "type": "uint256"
        }
      ],
      "payable": false,
      "stateMutability": "view",
      "type": "function"
    },
    {
      "constant": true,
      "inputs": [
        {
          "name": "_address",
          "type": "address"
        }
      ],
      "name": "getStoreIdsByMerchant",
      "outputs": [
        {
          "name": "",
          "type": "uint256[]"
        }
      ],
      "payable": false,
      "stateMutability": "view",
      "type": "function"
    },
    {
      "constant": false,
      "inputs": [
        {
          "name": "storeId",
          "type": "uint256"
        },
        {
          "name": "name",
          "type": "string"
        },
        {
          "name": "description",
          "type": "string"
        },
        {
          "name": "price",
          "type": "uint256"
        },
        {
          "name": "quantity",
          "type": "uint256"
        }
      ],
      "name": "addProduct",
      "outputs": [
        {
          "name": "",
          "type": "uint256"
        }
      ],
      "payable": false,
      "stateMutability": "nonpayable",
      "type": "function"
    },
    {
      "constant": true,
      "inputs": [
        {
          "name": "storeId",
          "type": "uint256"
        }
      ],
      "name": "getProductIdsInStore",
      "outputs": [
        {
          "name": "",
          "type": "uint256[]"
        }
      ],
      "payable": false,
      "stateMutability": "view",
      "type": "function"
    },
    {
      "constant": true,
      "inputs": [
        {
          "name": "productId",
          "type": "uint256"
        }
      ],
      "name": "getProductById",
      "outputs": [
        {
          "name": "id",
          "type": "uint256"
        },
        {
          "name": "name",
          "type": "string"
        },
        {
          "name": "description",
          "type": "string"
        },
        {
          "name": "price",
          "type": "uint256"
        },
        {
          "name": "state",
          "type": "uint256"
        },
        {
          "name": "storeId",
          "type": "uint256"
        },
        {
          "name": "quantity",
          "type": "uint256"
        }
      ],
      "payable": false,
      "stateMutability": "view",
      "type": "function"
    },
    {
      "constant": false,
      "inputs": [
        {
          "name": "productId",
          "type": "uint256"
        },
        {
          "name": "price",
          "type": "uint256"
        }
      ],
      "name": "updateProductPrice",
      "outputs": [],
      "payable": false,
      "stateMutability": "nonpayable",
      "type": "function"
    },
    {
      "constant": false,
      "inputs": [
        {
          "name": "productId",
          "type": "uint256"
        },
        {
          "name": "quantity",
          "type": "uint256"
        }
      ],
      "name": "updateProductQuantity",
      "outputs": [],
      "payable": false,
      "stateMutability": "nonpayable",
      "type": "function"
    },
    {
      "constant": false,
      "inputs": [
        {
          "name": "productId",
          "type": "uint256"
        },
        {
          "name": "price",
          "type": "uint256"
        },
        {
          "name": "quantity",
          "type": "uint256"
        }
      ],
      "name": "updateProductPriceAndQuantity",
      "outputs": [],
      "payable": false,
      "stateMutability": "nonpayable",
      "type": "function"
    },
    {
      "constant": false,
      "inputs": [
        {
          "name": "productId",
          "type": "uint256"
        }
      ],
      "name": "deleteProduct",
      "outputs": [],
      "payable": false,
      "stateMutability": "nonpayable",
      "type": "function"
    },
    {
      "constant": false,
      "inputs": [
        {
          "name": "storeId",
          "type": "uint256"
        }
      ],
      "name": "withdrawStoreBalance",
      "outputs": [],
      "payable": false,
      "stateMutability": "nonpayable",
      "type": "function"
    },
    {
      "constant": false,
      "inputs": [
        {
          "name": "storeId",
          "type": "uint256"
        }
      ],
      "name": "removeStore",
      "outputs": [],
      "payable": false,
      "stateMutability": "nonpayable",
      "type": "function"
    },
    {
      "constant": false,
      "inputs": [
        {
          "name": "productId",
          "type": "uint256"
        },
        {
          "name": "quantity",
          "type": "uint256"
        }
      ],
      "name": "buyProduct",
      "outputs": [],
      "payable": true,
      "stateMutability": "payable",
      "type": "function"
    }
  ],
  "bytecode": "0x60806040526000600260146101000a81548160ff02191690831515021790555034801561002b57600080fd5b50604051602080614d9683398101806040528101908080519060200190929190505050336000806101000a81548173ffffffffffffffffffffffffffffffffffffffff021916908373ffffffffffffffffffffffffffffffffffffffff160217905550336000806101000a81548173ffffffffffffffffffffffffffffffffffffffff021916908373ffffffffffffffffffffffffffffffffffffffff16021790555080600260006101000a81548173ffffffffffffffffffffffffffffffffffffffff021916908373ffffffffffffffffffffffffffffffffffffffff160217905550600260009054906101000a900473ffffffffffffffffffffffffffffffffffffffff16600160006101000a81548173ffffffffffffffffffffffffffffffffffffffff021916908373ffffffffffffffffffffffffffffffffffffffff1602179055506000600381905550600060048190555050614c04806101926000396000f300608060405260043610610149576000357c0100000000000000000000000000000000000000000000000000000000900463ffffffff16806301db5b481461014e5780630933c5b61461022f57806315aaeb22146102705780633f70c2b41461029d5780634dc6b9e0146103d257806353b6286614610413578063715018a61461043d5780637347f3101461045457806376ec594a1461053b5780638da5cb5b146105865780639133896f146105dd5780639662a2d71461061e57806398e8bd97146106b65780639bc0432c146106e15780639c3bddb21461070e578063abc8c7af14610745578063d0e04fe31461079c578063d80f5ab014610819578063d8e5730c1461089b578063daa17f49146108fc578063ed90c7b714610953578063f2fde38b14610980578063f833b3a9146109c3578063f9d3b97f14610b06578063fcc93b0b14610bed575b600080fd5b34801561015a57600080fd5b5061021960048036038101908080359060200190929190803590602001908201803590602001908080601f0160208091040260200160405190810160405280939291908181526020018383808284378201915050505050509192919290803590602001908201803590602001908080601f01602080910402602001604051908101604052809392919081815260200183838082843782019150505050505091929192908035906020019092919080359060200190929190505050610c24565b6040518082815260200191505060405180910390f35b34801561023b57600080fd5b5061026e60048036038101908080359060200190929190803590602001909291908035906020019092919050505061124c565b005b34801561027c57600080fd5b5061029b600480360381019080803590602001909291905050506116bd565b005b3480156102a957600080fd5b506102c860048036038101908080359060200190929190505050611c96565b604051808881526020018060200180602001878152602001868152602001858152602001848152602001838103835289818151815260200191508051906020019080838360005b8381101561032a57808201518184015260208101905061030f565b50505050905090810190601f1680156103575780820380516001836020036101000a031916815260200191505b50838103825288818151815260200191508051906020019080838360005b83811015610390578082015181840152602081019050610375565b50505050905090810190601f1680156103bd5780820380516001836020036101000a031916815260200191505b50995050505050505050505060405180910390f35b3480156103de57600080fd5b506103fd60048036038101908080359060200190929190505050611f83565b6040518082815260200191505060405180910390f35b61043b6004803603810190808035906020019092919080359060200190929190505050611f9b565b005b34801561044957600080fd5b50610452612380565b005b34801561046057600080fd5b5061047f60048036038101908080359060200190929190505050612482565b604051808581526020018473ffffffffffffffffffffffffffffffffffffffff1673ffffffffffffffffffffffffffffffffffffffff16815260200180602001838152602001828103825284818151815260200191508051906020019080838360005b838110156104fd5780820151818401526020810190506104e2565b50505050905090810190601f16801561052a5780820380516001836020036101000a031916815260200191505b509550505050505060405180910390f35b34801561054757600080fd5b506105706004803603810190808035906020019092919080359060200190929190505050612579565b6040518082815260200191505060405180910390f35b34801561059257600080fd5b5061059b6125a9565b604051808273ffffffffffffffffffffffffffffffffffffffff1673ffffffffffffffffffffffffffffffffffffffff16815260200191505060405180910390f35b3480156105e957600080fd5b50610608600480360381019080803590602001909291905050506125ce565b6040518082815260200191505060405180910390f35b34801561062a57600080fd5b5061065f600480360381019080803573ffffffffffffffffffffffffffffffffffffffff1690602001909291905050506125e6565b6040518080602001828103825283818151815260200191508051906020019060200280838360005b838110156106a2578082015181840152602081019050610687565b505050509050019250505060405180910390f35b3480156106c257600080fd5b506106cb61267d565b6040518082815260200191505060405180910390f35b3480156106ed57600080fd5b5061070c6004803603810190808035906020019092919050505061268a565b005b34801561071a57600080fd5b5061074360048036038101908080359060200190929190803590602001909291905050506130f0565b005b34801561075157600080fd5b5061075a61354f565b604051808273ffffffffffffffffffffffffffffffffffffffff1673ffffffffffffffffffffffffffffffffffffffff16815260200191505060405180910390f35b3480156107a857600080fd5b50610803600480360381019080803590602001908201803590602001908080601f0160208091040260200160405190810160405280939291908181526020018383808284378201915050505050509192919290505050613575565b6040518082815260200191505060405180910390f35b34801561082557600080fd5b5061084460048036038101908080359060200190929190505050613987565b6040518080602001828103825283818151815260200191508051906020019060200280838360005b8381101561088757808201518184015260208101905061086c565b505050509050019250505060405180910390f35b3480156108a757600080fd5b506108e6600480360381019080803573ffffffffffffffffffffffffffffffffffffffff16906020019092919080359060200190929190505050613a05565b6040518082815260200191505060405180910390f35b34801561090857600080fd5b50610911613a35565b604051808273ffffffffffffffffffffffffffffffffffffffff1673ffffffffffffffffffffffffffffffffffffffff16815260200191505060405180910390f35b34801561095f57600080fd5b5061097e60048036038101908080359060200190929190505050613a5b565b005b34801561098c57600080fd5b506109c1600480360381019080803573ffffffffffffffffffffffffffffffffffffffff169060200190929190505050614077565b005b3480156109cf57600080fd5b506109ee600480360381019080803590602001909291905050506140de565b604051808881526020018060200180602001878152602001866001811115610a1257fe5b60ff168152602001858152602001848152602001838103835289818151815260200191508051906020019080838360005b83811015610a5e578082015181840152602081019050610a43565b50505050905090810190601f168015610a8b5780820380516001836020036101000a031916815260200191505b50838103825288818151815260200191508051906020019080838360005b83811015610ac4578082015181840152602081019050610aa9565b50505050905090810190601f168015610af15780820380516001836020036101000a031916815260200191505b50995050505050505050505060405180910390f35b348015610b1257600080fd5b50610b316004803603810190808035906020019092919050505061426c565b604051808581526020018473ffffffffffffffffffffffffffffffffffffffff1673ffffffffffffffffffffffffffffffffffffffff16815260200180602001838152602001828103825284818151815260200191508051906020019080838360005b83811015610baf578082015181840152602081019050610b94565b50505050905090810190601f168015610bdc5780820380516001836020036101000a031916815260200191505b509550505050505060405180910390f35b348015610bf957600080fd5b50610c226004803603810190808035906020019092919080359060200190929190505050614416565b005b6000610c2e6148f7565b60011515600160009054906101000a900473ffffffffffffffffffffffffffffffffffffffff1673ffffffffffffffffffffffffffffffffffffffff16635effd33c336040518263ffffffff167c0100000000000000000000000000000000000000000000000000000000028152600401808273ffffffffffffffffffffffffffffffffffffffff1673ffffffffffffffffffffffffffffffffffffffff168152602001915050602060405180830381600087803b158015610cef57600080fd5b505af1158015610d03573d6000803e3d6000fd5b505050506040513d6020811015610d1957600080fd5b81019080805190602001909291905050501515141515610da1576040517f08c379a00000000000000000000000000000000000000000000000000000000081526004018080602001828103825260128152602001807f4f6e6c79206f776e657220616c6c6f776564000000000000000000000000000081525060200191505060405180910390fd5b863373ffffffffffffffffffffffffffffffffffffffff1660056006600084815260200190815260200160002054815481101515610ddb57fe5b906000526020600020906004020160010160009054906101000a900473ffffffffffffffffffffffffffffffffffffffff1673ffffffffffffffffffffffffffffffffffffffff16141515610e98576040517f08c379a000000000000000000000000000000000000000000000000000000000815260040180806020018281038252601e8152602001807f4f6e6c79206d65726368616e74206f662073746f726520616c6c6f776564000081525060200191505060405180910390fd5b600160009054906101000a900473ffffffffffffffffffffffffffffffffffffffff1673ffffffffffffffffffffffffffffffffffffffff16633f683b6a6040518163ffffffff167c0100000000000000000000000000000000000000000000000000000000028152600401602060405180830381600087803b158015610f1e57600080fd5b505af1158015610f32573d6000803e3d6000fd5b505050506040513d6020811015610f4857600080fd5b810190808051906020019092919050505015156112415760e060405190810160405280600354815260200188815260200187815260200186815260200160006001811115610f9257fe5b815260200189815260200185815250915060088290806001815401808255809150509060018203906000526020600020906007020160009091929091909150600082015181600001556020820151816001019080519060200190610ff7929190614940565b506040820151816002019080519060200190611014929190614940565b506060820151816003015560808201518160040160006101000a81548160ff0219169083600181111561104357fe5b021790555060a0820151816005015560c0820151816006015550505060016008805490500360096000600354815260200190815260200160002081905550600a6000600660008b81526020019081526020016000205481526020019081526020016000206009600060035481526020019081526020016000205490806001815401808255809150509060018203906000526020600020016000909192909190915055506003600081548092919060010191905055507f3b10aae8625b5b275fde49fdec47166cf0b0f2382321bf9bd08e5c152839102382600001518360200151846040015185606001518660a001518760c00151604051808781526020018060200180602001868152602001858152602001848152602001838103835288818151815260200191508051906020019080838360005b83811015611193578082015181840152602081019050611178565b50505050905090810190601f1680156111c05780820380516001836020036101000a031916815260200191505b50838103825287818151815260200191508051906020019080838360005b838110156111f95780820151818401526020810190506111de565b50505050905090810190601f1680156112265780820380516001836020036101000a031916815260200191505b509850505050505050505060405180910390a1816000015192505b505095945050505050565b6000600160009054906101000a900473ffffffffffffffffffffffffffffffffffffffff1673ffffffffffffffffffffffffffffffffffffffff16633f683b6a6040518163ffffffff167c0100000000000000000000000000000000000000000000000000000000028152600401602060405180830381600087803b1580156112d457600080fd5b505af11580156112e8573d6000803e3d6000fd5b505050506040513d60208110156112fe57600080fd5b810190808051906020019092919050505015156116b75760011515600160009054906101000a900473ffffffffffffffffffffffffffffffffffffffff1673ffffffffffffffffffffffffffffffffffffffff16635effd33c336040518263ffffffff167c0100000000000000000000000000000000000000000000000000000000028152600401808273ffffffffffffffffffffffffffffffffffffffff1673ffffffffffffffffffffffffffffffffffffffff168152602001915050602060405180830381600087803b1580156113d657600080fd5b505af11580156113ea573d6000803e3d6000fd5b505050506040513d602081101561140057600080fd5b81019080805190602001909291905050501515141515611488576040517f08c379a00000000000000000000000000000000000000000000000000000000081526004018080602001828103825260128152602001807f4f6e6c79206f776e657220616c6c6f776564000000000000000000000000000081525060200191505060405180910390fd5b600860096000868152602001908152602001600020548154811015156114aa57fe5b9060005260206000209060070201600501543373ffffffffffffffffffffffffffffffffffffffff16600560066000848152602001908152602001600020548154811015156114f557fe5b906000526020600020906004020160010160009054906101000a900473ffffffffffffffffffffffffffffffffffffffff1673ffffffffffffffffffffffffffffffffffffffff161415156115b2576040517f08c379a000000000000000000000000000000000000000000000000000000000815260040180806020018281038252601e8152602001807f4f6e6c79206d65726368616e74206f662073746f726520616c6c6f776564000081525060200191505060405180910390fd5b60008411151561162a576040517f08c379a00000000000000000000000000000000000000000000000000000000081526004018080602001828103825260168152602001807f5072696365206d75737420626520706f7369746976650000000000000000000081525060200191505060405180910390fd5b6008600960008781526020019081526020016000205481548110151561164c57fe5b906000526020600020906007020191508282600601819055508382600301819055507f064864a6d2f9a96b1b83677e9df4134ddcd7a3dc52962016ff1b22f7bcecd37185858560405180848152602001838152602001828152602001935050505060405180910390a1505b50505050565b6000600160009054906101000a900473ffffffffffffffffffffffffffffffffffffffff1673ffffffffffffffffffffffffffffffffffffffff16633f683b6a6040518163ffffffff167c0100000000000000000000000000000000000000000000000000000000028152600401602060405180830381600087803b15801561174557600080fd5b505af1158015611759573d6000803e3d6000fd5b505050506040513d602081101561176f57600080fd5b81019080805190602001909291905050501515611c925760011515600160009054906101000a900473ffffffffffffffffffffffffffffffffffffffff1673ffffffffffffffffffffffffffffffffffffffff16635effd33c336040518263ffffffff167c0100000000000000000000000000000000000000000000000000000000028152600401808273ffffffffffffffffffffffffffffffffffffffff1673ffffffffffffffffffffffffffffffffffffffff168152602001915050602060405180830381600087803b15801561184757600080fd5b505af115801561185b573d6000803e3d6000fd5b505050506040513d602081101561187157600080fd5b810190808051906020019092919050505015151415156118f9576040517f08c379a00000000000000000000000000000000000000000000000000000000081526004018080602001828103825260128152602001807f4f6e6c79206f776e657220616c6c6f776564000000000000000000000000000081525060200191505060405180910390fd5b813373ffffffffffffffffffffffffffffffffffffffff166005600660008481526020019081526020016000205481548110151561193357fe5b906000526020600020906004020160010160009054906101000a900473ffffffffffffffffffffffffffffffffffffffff1673ffffffffffffffffffffffffffffffffffffffff161415156119f0576040517f08c379a000000000000000000000000000000000000000000000000000000000815260040180806020018281038252601e8152602001807f4f6e6c79206d65726368616e74206f662073746f726520616c6c6f776564000081525060200191505060405180910390fd5b600060056006600086815260200190815260200160002054815481101515611a1457fe5b906000526020600020906004020160030154111515611ac1576040517f08c379a00000000000000000000000000000000000000000000000000000000081526004018080602001828103825260218152602001807f42616c616e6365206d7573742062652067726561746564207468616e207a657281526020017f6f0000000000000000000000000000000000000000000000000000000000000081525060400191505060405180910390fd5b60056006600085815260200190815260200160002054815481101515611ae357fe5b9060005260206000209060040201600301549150600060056006600086815260200190815260200160002054815481101515611b1b57fe5b90600052602060002090600402016003018190555060056006600085815260200190815260200160002054815481101515611b5257fe5b906000526020600020906004020160010160009054906101000a900473ffffffffffffffffffffffffffffffffffffffff1673ffffffffffffffffffffffffffffffffffffffff166108fc839081150290604051600060405180830381858888f19350505050158015611bc9573d6000803e3d6000fd5b507f3fa3edc0fb9ff68585dddb6cc36cde9d18497c77e068e54239285ee1175259c260056006600086815260200190815260200160002054815481101515611c0d57fe5b906000526020600020906004020160010160009054906101000a900473ffffffffffffffffffffffffffffffffffffffff168385604051808473ffffffffffffffffffffffffffffffffffffffff1673ffffffffffffffffffffffffffffffffffffffff168152602001838152602001828152602001935050505060405180910390a1505b5050565b60006060806000806000806008600960008a815260200190815260200160002054815481101515611cc357fe5b90600052602060002090600702016000015496506008600960008a815260200190815260200160002054815481101515611cf957fe5b90600052602060002090600702016001018054600181600116156101000203166002900480601f016020809104026020016040519081016040528092919081815260200182805460018160011615610100020316600290048015611d9e5780601f10611d7357610100808354040283529160200191611d9e565b820191906000526020600020905b815481529060010190602001808311611d8157829003601f168201915b505050505095506008600960008a815260200190815260200160002054815481101515611dc757fe5b90600052602060002090600702016002018054600181600116156101000203166002900480601f016020809104026020016040519081016040528092919081815260200182805460018160011615610100020316600290048015611e6c5780601f10611e4157610100808354040283529160200191611e6c565b820191906000526020600020905b815481529060010190602001808311611e4f57829003601f168201915b505050505094506008600960008a815260200190815260200160002054815481101515611e9557fe5b90600052602060002090600702016003015493506008600960008a815260200190815260200160002054815481101515611ecb57fe5b906000526020600020906007020160040160009054906101000a900460ff166001811115611ef557fe5b92506008600960008a815260200190815260200160002054815481101515611f1957fe5b90600052602060002090600702016005015491506008600960008a815260200190815260200160002054815481101515611f4f57fe5b9060005260206000209060070201600601549050868686868686869650965096509650965096509650919395979092949650565b60066020528060005260406000206000915090505481565b6000806000600160009054906101000a900473ffffffffffffffffffffffffffffffffffffffff1673ffffffffffffffffffffffffffffffffffffffff16633f683b6a6040518163ffffffff167c0100000000000000000000000000000000000000000000000000000000028152600401602060405180830381600087803b15801561202657600080fd5b505af115801561203a573d6000803e3d6000fd5b505050506040513d602081101561205057600080fd5b81019080805190602001909291905050501515612379576008600960008781526020019081526020016000205481548110151561208957fe5b90600052602060002090600702019250600060018111156120a657fe5b8360040160009054906101000a900460ff1660018111156120c357fe5b141515612138576040517f08c379a00000000000000000000000000000000000000000000000000000000081526004018080602001828103825260178152602001807f50726f64756374206973206e6f7420666f722073616c6500000000000000000081525060200191505060405180910390fd5b838360060154101515156121b4576040517f08c379a000000000000000000000000000000000000000000000000000000000815260040180806020018281038252601b8152602001807f4e6f7420656e6f7567682070726f6475637420696e2073746f636b000000000081525060200191505060405180910390fd5b826003015484029150813410151515612235576040517f08c379a00000000000000000000000000000000000000000000000000000000081526004018080602001828103825260158152602001807f4e6f7420656e6f7567682076616c75652073656e74000000000000000000000081525060200191505060405180910390fd5b8134111561228a5781340390503373ffffffffffffffffffffffffffffffffffffffff166108fc829081150290604051600060405180830381858888f19350505050158015612288573d6000803e3d6000fd5b505b8383600601600082825403925050819055508160056006600086600501548152602001908152602001600020548154811015156122c357fe5b9060005260206000209060040201600301600082825401925050819055507f051460f6343e8c318aee59ecc5d0c3a2cd760d8513a1b035b47c0eadddebd165836000015484600501548560030154878633604051808781526020018681526020018581526020018481526020018381526020018273ffffffffffffffffffffffffffffffffffffffff1673ffffffffffffffffffffffffffffffffffffffff168152602001965050505050505060405180910390a15b5050505050565b6000809054906101000a900473ffffffffffffffffffffffffffffffffffffffff1673ffffffffffffffffffffffffffffffffffffffff163373ffffffffffffffffffffffffffffffffffffffff161415156123db57600080fd5b6000809054906101000a900473ffffffffffffffffffffffffffffffffffffffff1673ffffffffffffffffffffffffffffffffffffffff167ff8df31144d9c2f0f6b59d69b8b98abd5459d07f2742c4df920b25aae33c6482060405160405180910390a260008060006101000a81548173ffffffffffffffffffffffffffffffffffffffff021916908373ffffffffffffffffffffffffffffffffffffffff160217905550565b60058181548110151561249157fe5b90600052602060002090600402016000915090508060000154908060010160009054906101000a900473ffffffffffffffffffffffffffffffffffffffff1690806002018054600181600116156101000203166002900480601f0160208091040260200160405190810160405280929190818152602001828054600181600116156101000203166002900480156125695780601f1061253e57610100808354040283529160200191612569565b820191906000526020600020905b81548152906001019060200180831161254c57829003601f168201915b5050505050908060030154905084565b600a6020528160005260406000208181548110151561259457fe5b90600052602060002001600091509150505481565b6000809054906101000a900473ffffffffffffffffffffffffffffffffffffffff1681565b60096020528060005260406000206000915090505481565b6060600760008373ffffffffffffffffffffffffffffffffffffffff1673ffffffffffffffffffffffffffffffffffffffff16815260200190815260200160002080548060200260200160405190810160405280929190818152602001828054801561267157602002820191906000526020600020905b81548152602001906001019080831161265d575b50505050509050919050565b6000600580549050905090565b6000806000806000600160009054906101000a900473ffffffffffffffffffffffffffffffffffffffff1673ffffffffffffffffffffffffffffffffffffffff16633f683b6a6040518163ffffffff167c0100000000000000000000000000000000000000000000000000000000028152600401602060405180830381600087803b15801561271857600080fd5b505af115801561272c573d6000803e3d6000fd5b505050506040513d602081101561274257600080fd5b810190808051906020019092919050505015156130e85760011515600160009054906101000a900473ffffffffffffffffffffffffffffffffffffffff1673ffffffffffffffffffffffffffffffffffffffff16635effd33c336040518263ffffffff167c0100000000000000000000000000000000000000000000000000000000028152600401808273ffffffffffffffffffffffffffffffffffffffff1673ffffffffffffffffffffffffffffffffffffffff168152602001915050602060405180830381600087803b15801561281a57600080fd5b505af115801561282e573d6000803e3d6000fd5b505050506040513d602081101561284457600080fd5b810190808051906020019092919050505015151415156128cc576040517f08c379a00000000000000000000000000000000000000000000000000000000081526004018080602001828103825260128152602001807f4f6e6c79206f776e657220616c6c6f776564000000000000000000000000000081525060200191505060405180910390fd5b853373ffffffffffffffffffffffffffffffffffffffff166005600660008481526020019081526020016000205481548110151561290657fe5b906000526020600020906004020160010160009054906101000a900473ffffffffffffffffffffffffffffffffffffffff1673ffffffffffffffffffffffffffffffffffffffff161415156129c3576040517f08c379a000000000000000000000000000000000000000000000000000000000815260040180806020018281038252601e8152602001807f4f6e6c79206d65726368616e74206f662073746f726520616c6c6f776564000081525060200191505060405180910390fd5b6006600088815260200190815260200160002054955060006005600660008a8152602001908152602001600020548154811015156129fd57fe5b9060005260206000209060040201600301541115612b1f5760056006600089815260200190815260200160002054815481101515612a3757fe5b906000526020600020906004020160030154945060006005600660008a815260200190815260200160002054815481101515612a6f57fe5b90600052602060002090600402016003018190555060056006600089815260200190815260200160002054815481101515612aa657fe5b906000526020600020906004020160010160009054906101000a900473ffffffffffffffffffffffffffffffffffffffff1673ffffffffffffffffffffffffffffffffffffffff166108fc869081150290604051600060405180830381858888f19350505050158015612b1d573d6000803e3d6000fd5b505b600093505b600a6000600660008a815260200190815260200160002054815260200190815260200160002080549050841015612bf4576001600860096000600a6000600660008e815260200190815260200160002054815260200190815260200160002088815481101515612b9057fe5b9060005260206000200154815260200190815260200160002054815481101515612bb657fe5b906000526020600020906007020160040160006101000a81548160ff02191690836001811115612be257fe5b02179055508380600101945050612b24565b600a6000600660008a81526020019081526020016000205481526020019081526020016000206000612c2691906149c0565b60016005805490501115612d8c576005600160058054905003815481101515612c4b57fe5b9060005260206000209060040201600587815481101515612c6857fe5b9060005260206000209060040201600082015481600001556001820160009054906101000a900473ffffffffffffffffffffffffffffffffffffffff168160010160006101000a81548173ffffffffffffffffffffffffffffffffffffffff021916908373ffffffffffffffffffffffffffffffffffffffff16021790555060028201816002019080546001816001161561010002031660029004612d0e9291906149e1565b50600382015481600301559050506005600160058054905003815481101515612d3357fe5b90600052602060002090600402016000808201600090556001820160006101000a81549073ffffffffffffffffffffffffffffffffffffffff0219169055600282016000612d819190614a68565b600382016000905550505b6001600760003373ffffffffffffffffffffffffffffffffffffffff1673ffffffffffffffffffffffffffffffffffffffff1681526020019081526020016000208054905011156130465760009250600091505b600760003373ffffffffffffffffffffffffffffffffffffffff1673ffffffffffffffffffffffffffffffffffffffff16815260200190815260200160002080549050821015612eb0576006600088815260200190815260200160002054600760003373ffffffffffffffffffffffffffffffffffffffff1673ffffffffffffffffffffffffffffffffffffffff16815260200190815260200160002083815481101515612e8a57fe5b90600052602060002001541415612ea357819250612eb0565b8180600101925050612de0565b600760003373ffffffffffffffffffffffffffffffffffffffff1673ffffffffffffffffffffffffffffffffffffffff1681526020019081526020016000206001600760003373ffffffffffffffffffffffffffffffffffffffff1673ffffffffffffffffffffffffffffffffffffffff1681526020019081526020016000208054905003815481101515612f4157fe5b9060005260206000200154600760003373ffffffffffffffffffffffffffffffffffffffff1673ffffffffffffffffffffffffffffffffffffffff16815260200190815260200160002087815481101515612f9857fe5b9060005260206000200181905550600760003373ffffffffffffffffffffffffffffffffffffffff1673ffffffffffffffffffffffffffffffffffffffff1681526020019081526020016000206001600760003373ffffffffffffffffffffffffffffffffffffffff1673ffffffffffffffffffffffffffffffffffffffff168152602001908152602001600020805490500381548110151561303757fe5b90600052602060002001600090555b600760003373ffffffffffffffffffffffffffffffffffffffff1673ffffffffffffffffffffffffffffffffffffffff1681526020019081526020016000208054809190600190036130989190614ab0565b5060058054809190600190036130ae9190614adc565b507fb7e64630e0d9bb953f54a3c01c8bf6ca41692ac9a3eb36236fb3dba784be687c876040518082815260200191505060405180910390a1505b505050505050565b6000600160009054906101000a900473ffffffffffffffffffffffffffffffffffffffff1673ffffffffffffffffffffffffffffffffffffffff16633f683b6a6040518163ffffffff167c0100000000000000000000000000000000000000000000000000000000028152600401602060405180830381600087803b15801561317857600080fd5b505af115801561318c573d6000803e3d6000fd5b505050506040513d60208110156131a257600080fd5b8101908080519060200190929190505050151561354a5760011515600160009054906101000a900473ffffffffffffffffffffffffffffffffffffffff1673ffffffffffffffffffffffffffffffffffffffff16635effd33c336040518263ffffffff167c0100000000000000000000000000000000000000000000000000000000028152600401808273ffffffffffffffffffffffffffffffffffffffff1673ffffffffffffffffffffffffffffffffffffffff168152602001915050602060405180830381600087803b15801561327a57600080fd5b505af115801561328e573d6000803e3d6000fd5b505050506040513d60208110156132a457600080fd5b8101908080519060200190929190505050151514151561332c576040517f08c379a00000000000000000000000000000000000000000000000000000000081526004018080602001828103825260128152602001807f4f6e6c79206f776e657220616c6c6f776564000000000000000000000000000081525060200191505060405180910390fd5b6008600960008581526020019081526020016000205481548110151561334e57fe5b9060005260206000209060070201600501543373ffffffffffffffffffffffffffffffffffffffff166005600660008481526020019081526020016000205481548110151561339957fe5b906000526020600020906004020160010160009054906101000a900473ffffffffffffffffffffffffffffffffffffffff1673ffffffffffffffffffffffffffffffffffffffff16141515613456576040517f08c379a000000000000000000000000000000000000000000000000000000000815260040180806020018281038252601e8152602001807f4f6e6c79206d65726368616e74206f662073746f726520616c6c6f776564000081525060200191505060405180910390fd5b6000831115156134ce576040517f08c379a00000000000000000000000000000000000000000000000000000000081526004018080602001828103825260168152602001807f5072696365206d75737420626520706f7369746976650000000000000000000081525060200191505060405180910390fd5b600860096000868152602001908152602001600020548154811015156134f057fe5b906000526020600020906007020191508282600301819055507f2632f9f215a9d4e060233752c6b3601cb9bf0075be4af3f004dc9f4742eaf1f38484604051808381526020018281526020019250505060405180910390a1505b505050565b600160009054906101000a900473ffffffffffffffffffffffffffffffffffffffff1681565b600061357f614b0e565b60011515600160009054906101000a900473ffffffffffffffffffffffffffffffffffffffff1673ffffffffffffffffffffffffffffffffffffffff16635effd33c336040518263ffffffff167c0100000000000000000000000000000000000000000000000000000000028152600401808273ffffffffffffffffffffffffffffffffffffffff1673ffffffffffffffffffffffffffffffffffffffff168152602001915050602060405180830381600087803b15801561364057600080fd5b505af1158015613654573d6000803e3d6000fd5b505050506040513d602081101561366a57600080fd5b810190808051906020019092919050505015151415156136f2576040517f08c379a00000000000000000000000000000000000000000000000000000000081526004018080602001828103825260128152602001807f4f6e6c79206f776e657220616c6c6f776564000000000000000000000000000081525060200191505060405180910390fd5b600160009054906101000a900473ffffffffffffffffffffffffffffffffffffffff1673ffffffffffffffffffffffffffffffffffffffff16633f683b6a6040518163ffffffff167c0100000000000000000000000000000000000000000000000000000000028152600401602060405180830381600087803b15801561377857600080fd5b505af115801561378c573d6000803e3d6000fd5b505050506040513d60208110156137a257600080fd5b810190808051906020019092919050505015156139815760806040519081016040528060045481526020013373ffffffffffffffffffffffffffffffffffffffff16815260200184815260200160008152509050600581908060018154018082558091505090600182039060005260206000209060040201600090919290919091506000820151816000015560208201518160010160006101000a81548173ffffffffffffffffffffffffffffffffffffffff021916908373ffffffffffffffffffffffffffffffffffffffff1602179055506040820151816002019080519060200190613891929190614940565b5060608201518160030155505050600760003373ffffffffffffffffffffffffffffffffffffffff1673ffffffffffffffffffffffffffffffffffffffff1681526020019081526020016000206004549080600181540180825580915050906001820390600052602060002001600090919290919091505550600160058054905003600660006004548152602001908152602001600020819055506004600081548092919060010191905055507f6c6c640d5c695d50cab6e007033207e384550c46ef1e827046dd75e4f33dc43281600001516040518082815260200191505060405180910390a1806000015191505b50919050565b6060600a6000600660008581526020019081526020016000205481526020019081526020016000208054806020026020016040519081016040528092919081815260200182805480156139f957602002820191906000526020600020905b8154815260200190600101908083116139e5575b50505050509050919050565b600760205281600052604060002081815481101515613a2057fe5b90600052602060002001600091509150505481565b600260009054906101000a900473ffffffffffffffffffffffffffffffffffffffff1681565b600080600080600160009054906101000a900473ffffffffffffffffffffffffffffffffffffffff1673ffffffffffffffffffffffffffffffffffffffff16633f683b6a6040518163ffffffff167c0100000000000000000000000000000000000000000000000000000000028152600401602060405180830381600087803b158015613ae757600080fd5b505af1158015613afb573d6000803e3d6000fd5b505050506040513d6020811015613b1157600080fd5b810190808051906020019092919050505015156140705760011515600160009054906101000a900473ffffffffffffffffffffffffffffffffffffffff1673ffffffffffffffffffffffffffffffffffffffff16635effd33c336040518263ffffffff167c0100000000000000000000000000000000000000000000000000000000028152600401808273ffffffffffffffffffffffffffffffffffffffff1673ffffffffffffffffffffffffffffffffffffffff168152602001915050602060405180830381600087803b158015613be957600080fd5b505af1158015613bfd573d6000803e3d6000fd5b505050506040513d6020811015613c1357600080fd5b81019080805190602001909291905050501515141515613c9b576040517f08c379a00000000000000000000000000000000000000000000000000000000081526004018080602001828103825260128152602001807f4f6e6c79206f776e657220616c6c6f776564000000000000000000000000000081525060200191505060405180910390fd5b60086009600087815260200190815260200160002054815481101515613cbd57fe5b9060005260206000209060070201600501543373ffffffffffffffffffffffffffffffffffffffff1660056006600084815260200190815260200160002054815481101515613d0857fe5b906000526020600020906004020160010160009054906101000a900473ffffffffffffffffffffffffffffffffffffffff1673ffffffffffffffffffffffffffffffffffffffff16141515613dc5576040517f08c379a000000000000000000000000000000000000000000000000000000000815260040180806020018281038252601e8152602001807f4f6e6c79206d65726368616e74206f662073746f726520616c6c6f776564000081525060200191505060405180910390fd5b60086009600088815260200190815260200160002054815481101515613de757fe5b9060005260206000209060070201945060018560040160006101000a81548160ff02191690836001811115613e1857fe5b021790555060009350600a60006006600088600501548152602001908152602001600020548152602001908152602001600020805490509250600160086009600089815260200190815260200160002054815481101515613e7557fe5b906000526020600020906007020160040160006101000a81548160ff02191690836001811115613ea157fe5b0217905550600091505b82821015613f115785600a6000600660008960050154815260200190815260200160002054815260200190815260200160002083815481101515613eeb57fe5b90600052602060002001541415613f0457819350613f11565b8180600101925050613eab565b6001831115613fed57600a6000600660008860050154815260200190815260200160002054815260200190815260200160002060018403815481101515613f5457fe5b9060005260206000200154600a6000600660008960050154815260200190815260200160002054815260200190815260200160002085815481101515613f9657fe5b9060005260206000200181905550600a6000600660008860050154815260200190815260200160002054815260200190815260200160002060018403815481101515613fde57fe5b90600052602060002001600090555b600a6000600660008860050154815260200190815260200160002054815260200190815260200160002080548091906001900361402a9190614ab0565b507f7eaef52aeda474bc3ac0820e087462835b5d756f3c4c32f65125abf1b186b0ba868660050154604051808381526020018281526020019250505060405180910390a1505b5050505050565b6000809054906101000a900473ffffffffffffffffffffffffffffffffffffffff1673ffffffffffffffffffffffffffffffffffffffff163373ffffffffffffffffffffffffffffffffffffffff161415156140d257600080fd5b6140db816147fd565b50565b6008818154811015156140ed57fe5b9060005260206000209060070201600091509050806000015490806001018054600181600116156101000203166002900480601f01602080910402602001604051908101604052809291908181526020018280546001816001161561010002031660029004801561419f5780601f106141745761010080835404028352916020019161419f565b820191906000526020600020905b81548152906001019060200180831161418257829003601f168201915b505050505090806002018054600181600116156101000203166002900480601f01602080910402602001604051908101604052809291908181526020018280546001816001161561010002031660029004801561423d5780601f106142125761010080835404028352916020019161423d565b820191906000526020600020905b81548152906001019060200180831161422057829003601f168201915b5050505050908060030154908060040160009054906101000a900460ff16908060050154908060060154905087565b600080606060006005600660008781526020019081526020016000205481548110151561429557fe5b9060005260206000209060040201600001549350600560066000878152602001908152602001600020548154811015156142cb57fe5b906000526020600020906004020160010160009054906101000a900473ffffffffffffffffffffffffffffffffffffffff1692506005600660008781526020019081526020016000205481548110151561432157fe5b90600052602060002090600402016002018054600181600116156101000203166002900480601f0160208091040260200160405190810160405280929190818152602001828054600181600116156101000203166002900480156143c65780601f1061439b576101008083540402835291602001916143c6565b820191906000526020600020905b8154815290600101906020018083116143a957829003601f168201915b50505050509150600560066000878152602001908152602001600020548154811015156143ef57fe5b90600052602060002090600402016003015490508383838393509350935093509193509193565b6000600160009054906101000a900473ffffffffffffffffffffffffffffffffffffffff1673ffffffffffffffffffffffffffffffffffffffff16633f683b6a6040518163ffffffff167c0100000000000000000000000000000000000000000000000000000000028152600401602060405180830381600087803b15801561449e57600080fd5b505af11580156144b2573d6000803e3d6000fd5b505050506040513d60208110156144c857600080fd5b810190808051906020019092919050505015156147f85760011515600160009054906101000a900473ffffffffffffffffffffffffffffffffffffffff1673ffffffffffffffffffffffffffffffffffffffff16635effd33c336040518263ffffffff167c0100000000000000000000000000000000000000000000000000000000028152600401808273ffffffffffffffffffffffffffffffffffffffff1673ffffffffffffffffffffffffffffffffffffffff168152602001915050602060405180830381600087803b1580156145a057600080fd5b505af11580156145b4573d6000803e3d6000fd5b505050506040513d60208110156145ca57600080fd5b81019080805190602001909291905050501515141515614652576040517f08c379a00000000000000000000000000000000000000000000000000000000081526004018080602001828103825260128152602001807f4f6e6c79206f776e657220616c6c6f776564000000000000000000000000000081525060200191505060405180910390fd5b6008600960008581526020019081526020016000205481548110151561467457fe5b9060005260206000209060070201600501543373ffffffffffffffffffffffffffffffffffffffff16600560066000848152602001908152602001600020548154811015156146bf57fe5b906000526020600020906004020160010160009054906101000a900473ffffffffffffffffffffffffffffffffffffffff1673ffffffffffffffffffffffffffffffffffffffff1614151561477c576040517f08c379a000000000000000000000000000000000000000000000000000000000815260040180806020018281038252601e8152602001807f4f6e6c79206d65726368616e74206f662073746f726520616c6c6f776564000081525060200191505060405180910390fd5b6008600960008681526020019081526020016000205481548110151561479e57fe5b906000526020600020906007020191508282600601819055507f09179b7861fed3721b971743b97074ad86abecc53a7f905a0b959f55c0927b928484604051808381526020018281526020019250505060405180910390a1505b505050565b600073ffffffffffffffffffffffffffffffffffffffff168173ffffffffffffffffffffffffffffffffffffffff161415151561483957600080fd5b8073ffffffffffffffffffffffffffffffffffffffff166000809054906101000a900473ffffffffffffffffffffffffffffffffffffffff1673ffffffffffffffffffffffffffffffffffffffff167f8be0079c531659141344cd1fd0a4f28419497f9722a3daafe3b4186f6b6457e060405160405180910390a3806000806101000a81548173ffffffffffffffffffffffffffffffffffffffff021916908373ffffffffffffffffffffffffffffffffffffffff16021790555050565b60e060405190810160405280600081526020016060815260200160608152602001600081526020016000600181111561492c57fe5b815260200160008152602001600081525090565b828054600181600116156101000203166002900490600052602060002090601f016020900481019282601f1061498157805160ff19168380011785556149af565b828001600101855582156149af579182015b828111156149ae578251825591602001919060010190614993565b5b5090506149bc9190614b4d565b5090565b50805460008255906000526020600020908101906149de9190614b4d565b50565b828054600181600116156101000203166002900490600052602060002090601f016020900481019282601f10614a1a5780548555614a57565b82800160010185558215614a5757600052602060002091601f016020900482015b82811115614a56578254825591600101919060010190614a3b565b5b509050614a649190614b4d565b5090565b50805460018160011615610100020316600290046000825580601f10614a8e5750614aad565b601f016020900490600052602060002090810190614aac9190614b4d565b5b50565b815481835581811115614ad757818360005260206000209182019101614ad69190614b4d565b5b505050565b815481835581811115614b0957600402816004028360005260206000209182019101614b089190614b72565b5b505050565b60806040519081016040528060008152602001600073ffffffffffffffffffffffffffffffffffffffff16815260200160608152602001600081525090565b614b6f91905b80821115614b6b576000816000905550600101614b53565b5090565b90565b614bd591905b80821115614bd1576000808201600090556001820160006101000a81549073ffffffffffffffffffffffffffffffffffffffff0219169055600282016000614bc09190614a68565b600382016000905550600401614b78565b5090565b905600a165627a7a7230582078ce6affe2b2ccb5530ba2123ab96e12c078b42fb2cfe63761acdb6c4c1383030029",
  "source": "pragma solidity 0.4.24;\n\nimport \"../library_contracts/Ownable.sol\";\n\n\nimport \"./Marketplace.sol\";\n\n/*\nContract for managing stores in the Marketplace contract.\n--------------------\n--------------------.\n*/\n\n/** @title MarketplaceStores. */\ncontract MarketplaceStores is Ownable {\n\n    /* Variable to hold a reference to the instance of the Marketplace contract */\n    Marketplace public marketplace;\n\n    /* Address of the Marketplace contract */\n    address public marketplaceAddress;\n\n    /* Used for emergency stop mechanism */\n    bool private stopped = false;\n\n    /* Used for generating product id numbers */\n    uint productIndex;\n\n    /* Used for generating store id numbers */\n    uint storeIndex;\n\n    /* Array that holds all Stores */\n    Store[] public storesArr;\n\n    /* Mappping between store id and store index inside storesArr */\n    mapping (uint => uint) public indexOfStore;\n\n    /* Mapping between merchant address and array of ids relating to their stores */\n    mapping (address => uint[]) public merchantStoreIds;\n\n    /* Array that holds all products */\n    Product[] public productsArr;\n\n    /* Mapping between product id and product index inside productsArr */\n    mapping (uint => uint) public indexOfProduct;\n\n    /* Mapping between store id and an array of products relating to that store */\n    mapping (uint => uint[]) public storeProductIds;\n\n    /* ProductState enum with two states, ForSale and Removed */\n    enum ProductState { ForSale, Removed }\n\n    /** @dev Stores Store data\n      * @param id Store id.\n      * @param merchant Address of store owner (merchant).\n      * @param name Store name.\n      * @param balance Store balance.\n      */\n    struct Store {\n        uint id;\n        address merchant;\n        string name;\n        uint balance;\n    }\n\n    /** @dev Stores product data\n      * @param id Product id.\n      * @param name Product name.\n      * @param description Product description.\n      * @param price Product price.\n      * @param state Product state.\n      * @param storeId StoreId that product belongs to.\n      * @param quantity Remaining product quantity.\n      */\n    struct Product {\n        uint id;\n        string name;\n        string description;\n        uint price;\n        ProductState state;\n        uint storeId;\n        uint quantity;\n    }\n\n    // Emitted contract events\n    event StoreCreated(uint id);\n    event StoreDeleted(uint id);\n    event ProductCreated(uint id, string name, string description, uint price, uint storeId, uint quantity);\n    event ProductDeleted(uint id, uint storeId);\n    event ProductPriceUpdated(uint id, uint price);\n    event ProductQuantityUpdated(uint id, uint quantity);\n    event ProductPriceAndQuantityUpdated(uint id, uint price, uint quantity);\n    event ProductSold(uint id, uint storeId, uint price, uint quantity, uint total, address buyer);\n    event StoreBalanceWithdraw(address merchant, uint amount, uint storeId);\n\n    /** @dev Emergency stop modifier which restricts certain functions from executing if toggled on */\n    modifier stopInEmergency {if (!marketplace.isStopped()) _;}\n\n    /** @dev Modifier function to check if sender is of merchant status  */\n    modifier isStorekeeper() {require(marketplace.isStoreOwner(msg.sender) == true, \"Only owner allowed\"); _;}\n\n    /** @dev Modifier function to check if sender is owner of store  */\n    modifier isOwnerOfStore(uint id) {require(storesArr[indexOfStore[id]].merchant == msg.sender, \"Only merchant of store allowed\"); _;}\n\n\n    /** @dev Contract constructor, initializes with reference to Marketplace contract.\n      * @param _marketplaceAddress Address of related Marketplace contract.\n      */\n    constructor(address _marketplaceAddress) public {\n        owner = msg.sender;\n        marketplaceAddress = _marketplaceAddress;\n        marketplace = Marketplace(marketplaceAddress);\n\n        productIndex = 0;\n        storeIndex = 0;\n    }\n\n    /** @dev Creates a new store where msg.sender is the merchant.\n      * @param name Store name.\n      * @return The new store id\n      */\n    function createStore(string name) public isStorekeeper() stopInEmergency returns (uint) {\n        Store memory newStore = Store(storeIndex, msg.sender, name, 0);\n        storesArr.push(newStore);\n        merchantStoreIds[msg.sender].push(storeIndex);\n        indexOfStore[storeIndex] = storesArr.length - 1;\n        storeIndex++;\n        emit StoreCreated(newStore.id);\n        return newStore.id;\n    }\n\n    /** @dev Returns the current number of stores.\n      * @return Number of current stores.\n      */\n    function getStoreCount() public view returns (uint) {\n        return storesArr.length;\n    }\n\n    /** @dev Returns Store data related to id.\n      * @param _id Store id.\n      * @return id Id of Store.\n      * @return merchant Store owner address.\n      * @return name Store name\n      * @return balance Store balance\n      */\n    function getStoreById(uint _id) public view returns (uint id, address merchant, string name, uint balance) {\n        id = storesArr[indexOfStore[_id]].id;\n        merchant = storesArr[indexOfStore[_id]].merchant;\n        name = storesArr[indexOfStore[_id]].name;\n        balance = storesArr[indexOfStore[_id]].balance;\n        return (id, merchant, name, balance);\n    }\n\n    /** @dev Returns related store ids for given address.\n      * @param _address Owner of stores to return.\n      * @return Array that holds id numbers of related stores for address\n      */\n    function getStoreIdsByMerchant(address _address) public view returns (uint[]) {\n        return merchantStoreIds[_address];\n    }\n\n    /** @dev Adds a new product to existing store\n      * @param storeId Id of Store that will hold the product.\n      * @param name Product name.\n      * @param description Product description.\n      * @param price Product price (Wei).\n      * @param quantity Product quantity (stock amount).\n      * @return Id of created Product.\n      */\n    function addProduct(uint storeId, string name, string description, uint price, uint quantity)\n\tpublic isStorekeeper\n    isOwnerOfStore(storeId)\n    stopInEmergency\n    returns (uint) {\n        Product memory product = Product(\n            productIndex,\n            name,\n            description,\n            price,\n            ProductState.ForSale,\n            storeId,\n            quantity\n            );\n        productsArr.push(product);\n        indexOfProduct[productIndex] = productsArr.length - 1;\n        storeProductIds[indexOfStore[storeId]].push(indexOfProduct[productIndex]);\n        productIndex++;\n        emit ProductCreated(product.id, product.name, product.description, product.price, product.storeId, product.quantity);\n        return product.id;\n    }\n\n    /** @dev Returns Product ids for a given Store id.\n      * @param storeId Id of Store for which to return Product ids.\n      * @return Array of Product ids related to given Store id.\n      */\n    function getProductIdsInStore(uint storeId) public view returns (uint[]) {\n        return storeProductIds[indexOfStore[storeId]];\n    }\n\n    /** @dev Return Product data related to Product id.\n      * @param productId Id of Product for which to return data.\n      * @return id Product id.\n      * @return name Product name.\n      * @return description Product description.\n      * @return price Product price.\n      * @return state Product state.\n      * @return storeId Store id that product belongs to.\n      * @return quantity Remaining quantity for product.\n      */\n    function getProductById(uint productId) public view returns (\n        uint id,\n        string name,\n        string description,\n        uint price,\n        uint state,\n        uint storeId,\n        uint quantity\n        ) {\n        id = productsArr[indexOfProduct[productId]].id;\n        name = productsArr[indexOfProduct[productId]].name;\n        description = productsArr[indexOfProduct[productId]].description;\n        price = productsArr[indexOfProduct[productId]].price;\n        state = uint(productsArr[indexOfProduct[productId]].state);\n        storeId = productsArr[indexOfProduct[productId]].storeId;\n        quantity = productsArr[indexOfProduct[productId]].quantity;\n        return (id, name, description, price, state, storeId, quantity);\n    }\n\n    /** @dev Updates price for given Product id.\n      * @param productId Id of Product for which to update price.\n      * @param price The new price of the Product.\n      */\n    function updateProductPrice(uint productId, uint price)\n    public\n    stopInEmergency\n    isStorekeeper\n    isOwnerOfStore(productsArr[indexOfProduct[productId]].storeId) {\n        require(price > 0, \"Price must be positive\");\n        Product storage product = productsArr[indexOfProduct[productId]];\n        product.price = price;\n        emit ProductPriceUpdated(productId, price);\n    }\n\n    /** @dev Updates quantity for given Product id.\n      * @param productId Id of Product for which to update quantity.\n      * @param quantity The new quantity of the Product.\n      */\n    function updateProductQuantity(uint productId, uint quantity)\n    public\n    stopInEmergency\n    isStorekeeper\n    isOwnerOfStore(productsArr[indexOfProduct[productId]].storeId) {\n        Product storage product = productsArr[indexOfProduct[productId]];\n        product.quantity = quantity;\n        emit ProductQuantityUpdated(productId, quantity);\n    }\n\n    /** @dev Updates price and quantity for given Product id.\n      * @param productId Id of Product for which to update price and quantity.\n      * @param price The new price of the Product.\n      * @param quantity The new quantity of the Product.\n      */\n    function updateProductPriceAndQuantity(uint productId, uint price, uint quantity)\n    public\n    stopInEmergency\n    isStorekeeper\n    isOwnerOfStore(productsArr[indexOfProduct[productId]].storeId)\n    {\n        require(price > 0, \"Price must be positive\");\n        Product storage product = productsArr[indexOfProduct[productId]];\n        product.quantity = quantity;\n        product.price = price;\n        emit ProductPriceAndQuantityUpdated(productId, price, quantity);\n    }\n\n    /** @dev Deletes a products from the Product array.\n      * @param productId Id of Product to delete.\n      */\n    function deleteProduct(uint productId)\n    public\n    stopInEmergency\n    isStorekeeper\n    isOwnerOfStore(productsArr[indexOfProduct[productId]].storeId)\n    {\n        Product storage product = productsArr[indexOfProduct[productId]];\n        product.state = ProductState.Removed;\n\n        uint index = 0;\n        uint productCountInStore = storeProductIds[indexOfStore[product.storeId]].length;\n\n        // Set removed state for product\n        productsArr[indexOfProduct[productId]].state = ProductState.Removed;\n\n        // Find the index of the Product in the storeProductIds mapping array\n        for (uint i = 0; i < productCountInStore; i++) {\n            if(storeProductIds[indexOfStore[product.storeId]][i] == productId) {\n                index = i;\n                break;\n            }\n        }\n\n        // Move the last element of the array to the index position, then delete the duplicate, dont care about order\n        if (productCountInStore > 1) {\n            storeProductIds[indexOfStore[product.storeId]][index] = storeProductIds[indexOfStore[product.storeId]][productCountInStore-1];\n            delete(storeProductIds[indexOfStore[product.storeId]][productCountInStore-1]); // recover gas\n        }\n        // Reduce the size of the mapped array\n        storeProductIds[indexOfStore[product.storeId]].length--;\n        emit ProductDeleted(productId, product.storeId);\n    }\n\n    /** @dev Withdraws Store balance to its corresponding merchant.\n      * @param storeId Id of Store of which to withdraw balance from.\n      */\n    function withdrawStoreBalance(uint storeId)\n    public\n    stopInEmergency\n    isStorekeeper\n    isOwnerOfStore(storeId)\n    {\n        require(storesArr[indexOfStore[storeId]].balance > 0, \"Balance must be greated than zero\");\n\n        uint balance = storesArr[indexOfStore[storeId]].balance;\n\n        // Set balance to zero before transfering funds to prevent re-entrance attack\n        storesArr[indexOfStore[storeId]].balance = 0;\n        storesArr[indexOfStore[storeId]].merchant.transfer(balance);\n        emit StoreBalanceWithdraw(storesArr[indexOfStore[storeId]].merchant, balance, storeId);\n    }\n\n     /** @dev Remove specified Store from market.\n      * Removes any product mappings.\n      * Deletes products for store to product mappings.\n      * Sets Product state in productsArr to Removed\n      * Refunds any remaining balance to merchant of store.\n      * @param storeId Id of Store of which to remove.\n      */\n    function removeStore(uint storeId)\n    public\n    stopInEmergency\n    isStorekeeper\n    isOwnerOfStore(storeId)\n    {\n        uint index = indexOfStore[storeId];\n\n        // Send remaining balance to merchant\n        if(storesArr[indexOfStore[storeId]].balance > 0) {\n            uint balance = storesArr[indexOfStore[storeId]].balance;\n            storesArr[indexOfStore[storeId]].balance = 0;\n            storesArr[indexOfStore[storeId]].merchant.transfer(balance);\n        }\n\n        // Mark products in products array as removed\n        for(uint x = 0; x < storeProductIds[indexOfStore[storeId]].length; x++) {\n            productsArr[indexOfProduct[storeProductIds[indexOfStore[storeId]][x]]].state = ProductState.Removed;\n        }\n        // Delete products mapping\n        delete storeProductIds[indexOfStore[storeId]];\n\n        if (storesArr.length > 1) {\n            storesArr[index] = storesArr[storesArr.length-1];\n            delete(storesArr[storesArr.length-1]); // recover gas\n        }\n\n        // Find index of correct Store in the merchants Store mapping array\n        if (merchantStoreIds[msg.sender].length > 1) {\n            uint merchantMappingIndex = 0;\n            for(uint i = 0; i < merchantStoreIds[msg.sender].length; i++) {\n                if(merchantStoreIds[msg.sender][i] == indexOfStore[storeId]) {\n                    merchantMappingIndex = i;\n                    break;\n                }\n            }\n\n            // Move the last element of the array to the index position, then delete the duplicate, dont care about order\n            merchantStoreIds[msg.sender][index] = merchantStoreIds[msg.sender][merchantStoreIds[msg.sender].length-1];\n            delete(merchantStoreIds[msg.sender][merchantStoreIds[msg.sender].length-1]); // recover gas\n        }\n\n        // Reduce the size of the mapping array\n        merchantStoreIds[msg.sender].length--;\n        // Reduce the size of the storesArr\n        storesArr.length--;\n        emit StoreDeleted(storeId);\n    }\n\n    /** @dev Buy a product.\n      * @param productId Id of Product of which to buy.\n      * @param quantity Quantity of product of which to buy.\n      */\n    function buyProduct(uint productId, uint quantity)\n    public\n    payable\n    stopInEmergency\n    {\n        Product storage product = productsArr[indexOfProduct[productId]];\n        require(product.state == ProductState.ForSale, \"Product is not for sale\");\n        require(product.quantity >= quantity, \"Not enough product in stock\");\n        uint totalPrice = quantity * product.price;\n        require(msg.value >= totalPrice, \"Not enough value sent\");\n\n        // Refund excess value sent\n        if (msg.value > totalPrice) {\n            uint excessEther = msg.value - totalPrice;\n            msg.sender.transfer(excessEther);\n\t\t}\n\n        product.quantity -= quantity;\n        storesArr[indexOfStore[product.storeId]].balance += totalPrice;\n        emit ProductSold(product.id, product.storeId, product.price, quantity, totalPrice, msg.sender);\n    }\n}",
  "sourcePath": "/Users/marcusresell/Code/ethereum/ethDapp/contracts/MarketplaceStores.sol",
  "compiler": {
    "name": "solc",
    "version": "0.4.24+commit.e67f0147.Emscripten.clang"
  },
  "schemaVersion": "2.0.1",
  "updatedAt": "2018-08-28T08:33:55.424Z"
}